:020000040000FA
:06000000EBEF01F012001D
:020006001200E6
:0600080004EF01F01200FC
:02000E000100EF
:0C001000F2030000800000005800000017
:04001C00DACFE4FF54
:10002000E2CFDAFFE9CFE4FFEACFE4FFF6CFE4FF67
:10003000F7CFE4FFF5CFE4FFF3CFE4FFF4CFE4FF25
:10004000FACFE4FF00EE04F0020EE80403E3EECF83
:10005000E4FFFBD700EE00F0040EE80403E3EECF6C
:10006000E4FFFBD7E652F284010E000902E0CCD88F
:1000700002D0A1AC50D9E55200EE03F0040EE80422
:1000800003E3E5CFEDFFFBD700EE05F0020EE80439
:1000900003E3E5CFEDFFFBD7E5CFFAFFE5CFF4FFB4
:1000A000E5CFF3FFE5CFF5FFE5CFF7FFE5CFF6FFAF
:1000B000E5CFEAFFE5CFE9FFE5CFDAFF1100928057
:1000C000928294929494956A82928294C36AC46A4A
:1000D000C16AC26A950EC06EC280530ECB6E250EE9
:1000E000BE6E020ECA6E0D0EBD6ECA84250EBB6EAC
:1000F0009492020ECA6ECA84BA6AA19C060EB46EAD
:10010000AC0EB56E080ED56EEC0ED76E780ED66EB0
:10011000F28AF294F29E140E0001825D01E1826B7C
:10012000D58EF28EA19CA1BC02D045D8FCD783709D
:10013000F2D71200D9CFE6FFE1CFD9FF040EE126B6
:10014000DE6ADD6A020EDB6A030EDB6ADE6ADD6AE6
:10015000DECF00F0DDCF01F0FD0EDBCF02F0FE0EB2
:10016000DBCF03F00250005C035001581AE2020E8C
:10017000DB6A030EDB6A020EDBCF00F0030EDBCF7F
:1001800001F0A50E005C000E015806E2020EDB2A0B
:10019000030E01E3DB2AEFD7DF2A010E01E3DB2A9E
:1001A000D7D7040EE15C02E2E16AE552E16EE55266
:1001B000E7CFD9FF1200D9CFE6FFE1CFD9FF020E7A
:1001C000E126DE6ADD6AC282C2B2FED7C350DE6EAD
:1001D000DD6AC450006E00C001F0006AD9CFE9FFAB
:1001E000DACFEAFF0050EE120150ED12DECF80F0C0
:1001F000DDCF81F0020EE15C02E2E16AE552E16EE0
:10020000E552E7CFD9FF1200D59EF2940001822B70
:100210008251E96EEA6AD890E936EA36D80EE926C4
:10022000000EEA2280C0EEFF81C0EDFF8251E96E30
:10023000EA6AD890E936EA36AE0EE926000EEA22DE
:10024000EECF00F0EFCF01F00050805D01508159FA
:1002500029E38251E96EEA6AD890E936EA36840EDB
:10026000E926000EEA22EECF02F0EFCF03F0805134
:10027000025C8151035816E3830513E1A00EE66E7C
:100280000F0EE66E57DFE552E552BA6A8292140EFF
:10029000E66EE66A4FDFE552E5520D0EBD6E0001D7
:1002A000836B33D08251E96EEA6AD890E936EA3638
:1002B000AE0EE926000EEA22EECF00F0EFCF01F0FD
:1002C0008051005C8151015820E38251E96EEA6A55
:1002D000D890E936EA36840EE926000EEA22EECFFF
:1002E00002F0EFCF03F00250805D035081590DE31F
:1002F000BD6A8294140EE66EE66A1CDFE552E55292
:100300000D0EBA6E0001010E836FEC0ED76E780EE3
:08031000D66ED58E120012001A
:080318000E0EF66E000EF76EEA
:10032000000EF86E00010900F550F36F0900F5505A
:10033000F46F03E1F36701D03DD00900F550EE6F93
:100340000900F550EF6F0900F550F06F0900090042
:10035000F550E96E0900F550EA6E09000900090040
:10036000F550F16F0900F550F26F09000900F6CF62
:10037000F5F0F7CFF6F0F8CFF7F0EEC0F6FFEFC0EC
:10038000F7FFF0C0F8FF0001F15302E1F25307E07C
:100390000900F550EE6EF107F8E2F207F9D7F5C063
:1003A000F6FFF6C0F7FFF7C0F8FF0001F307000EF5
:0603B000F45BBFD7120050
:0A03B600000EF36E00EE00F0060EDC
:1003C00001D81200EA6002D0EE6AFCD7F350E9606F
:0603D0001200EE6AFCD7EA
:0A03D60015EE00F025EE00F0F86AC5
:1003E000059C8CEC01F003EC00F05FEC00F0FBD717
:0203F0001200F9
:0E03F2000000000000026702C4020E033D037B
:100400004D033D030E03C4026702000298013B0145
:10041000F100C200B200C200F1003B0198010002ED
:10042000000252029D02D802FE020B03FE02D80215
:100430009D0252020002AD01620127010101F40098
:0A044000010127016201AD01000275
:020000040030CA
:0100010002FC
:010003001EDE
:010005008179
:010006008178
:00000001FF
